{
  "_format": "hh-sol-artifact-1",
  "contractName": "Lottery",
  "sourceName": "contracts/Lottery.sol",
  "abi": [
    {
      "inputs": [
        {
          "internalType": "address",
          "name": "vrfCoordinatorV2",
          "type": "address"
        },
        {
          "internalType": "uint256",
          "name": "entranceFee",
          "type": "uint256"
        },
        {
          "internalType": "bytes32",
          "name": "gasLane",
          "type": "bytes32"
        },
        {
          "internalType": "uint64",
          "name": "subscriptionId",
          "type": "uint64"
        },
        {
          "internalType": "uint32",
          "name": "callbackGasLimit",
          "type": "uint32"
        },
        {
          "internalType": "uint256",
          "name": "interval",
          "type": "uint256"
        }
      ],
      "stateMutability": "nonpayable",
      "type": "constructor"
    },
    {
      "inputs": [],
      "name": "Lottery__NotEnoughETHEntered",
      "type": "error"
    },
    {
      "inputs": [],
      "name": "Lottery__NotOpen",
      "type": "error"
    },
    {
      "inputs": [],
      "name": "Lottery__TransferFailed",
      "type": "error"
    },
    {
      "inputs": [
        {
          "internalType": "uint256",
          "name": "currentBalance",
          "type": "uint256"
        },
        {
          "internalType": "uint256",
          "name": "numPlayers",
          "type": "uint256"
        },
        {
          "internalType": "uint256",
          "name": "lotteryState",
          "type": "uint256"
        }
      ],
      "name": "Lottery__UpKeepNotNeeded",
      "type": "error"
    },
    {
      "inputs": [
        {
          "internalType": "address",
          "name": "have",
          "type": "address"
        },
        {
          "internalType": "address",
          "name": "want",
          "type": "address"
        }
      ],
      "name": "OnlyCoordinatorCanFulfill",
      "type": "error"
    },
    {
      "anonymous": false,
      "inputs": [
        {
          "indexed": true,
          "internalType": "address",
          "name": "player",
          "type": "address"
        }
      ],
      "name": "LotteryEnter",
      "type": "event"
    },
    {
      "anonymous": false,
      "inputs": [
        {
          "indexed": true,
          "internalType": "uint256",
          "name": "requestId",
          "type": "uint256"
        }
      ],
      "name": "RequestedLotteryWinner",
      "type": "event"
    },
    {
      "anonymous": false,
      "inputs": [
        {
          "indexed": true,
          "internalType": "address",
          "name": "winner",
          "type": "address"
        }
      ],
      "name": "WinnerPicked",
      "type": "event"
    },
    {
      "inputs": [
        {
          "internalType": "bytes",
          "name": "",
          "type": "bytes"
        }
      ],
      "name": "checkUpkeep",
      "outputs": [
        {
          "internalType": "bool",
          "name": "upkeepNeeded",
          "type": "bool"
        },
        {
          "internalType": "bytes",
          "name": "",
          "type": "bytes"
        }
      ],
      "stateMutability": "view",
      "type": "function"
    },
    {
      "inputs": [],
      "name": "enterLottery",
      "outputs": [],
      "stateMutability": "payable",
      "type": "function"
    },
    {
      "inputs": [],
      "name": "getEntranceFee",
      "outputs": [
        {
          "internalType": "uint256",
          "name": "",
          "type": "uint256"
        }
      ],
      "stateMutability": "view",
      "type": "function"
    },
    {
      "inputs": [],
      "name": "getInterval",
      "outputs": [
        {
          "internalType": "uint256",
          "name": "",
          "type": "uint256"
        }
      ],
      "stateMutability": "view",
      "type": "function"
    },
    {
      "inputs": [],
      "name": "getLastTimeStamp",
      "outputs": [
        {
          "internalType": "uint256",
          "name": "",
          "type": "uint256"
        }
      ],
      "stateMutability": "view",
      "type": "function"
    },
    {
      "inputs": [],
      "name": "getLotteryState",
      "outputs": [
        {
          "internalType": "enum Lottery.LotteryState",
          "name": "",
          "type": "uint8"
        }
      ],
      "stateMutability": "view",
      "type": "function"
    },
    {
      "inputs": [],
      "name": "getNumWords",
      "outputs": [
        {
          "internalType": "uint256",
          "name": "",
          "type": "uint256"
        }
      ],
      "stateMutability": "pure",
      "type": "function"
    },
    {
      "inputs": [],
      "name": "getNumberOfPlayers",
      "outputs": [
        {
          "internalType": "uint256",
          "name": "",
          "type": "uint256"
        }
      ],
      "stateMutability": "view",
      "type": "function"
    },
    {
      "inputs": [
        {
          "internalType": "uint256",
          "name": "index",
          "type": "uint256"
        }
      ],
      "name": "getPlayer",
      "outputs": [
        {
          "internalType": "address",
          "name": "",
          "type": "address"
        }
      ],
      "stateMutability": "view",
      "type": "function"
    },
    {
      "inputs": [],
      "name": "getRecentWinner",
      "outputs": [
        {
          "internalType": "address",
          "name": "",
          "type": "address"
        }
      ],
      "stateMutability": "view",
      "type": "function"
    },
    {
      "inputs": [],
      "name": "getRequestConfirmations",
      "outputs": [
        {
          "internalType": "uint256",
          "name": "",
          "type": "uint256"
        }
      ],
      "stateMutability": "pure",
      "type": "function"
    },
    {
      "inputs": [
        {
          "internalType": "bytes",
          "name": "",
          "type": "bytes"
        }
      ],
      "name": "performUpkeep",
      "outputs": [],
      "stateMutability": "nonpayable",
      "type": "function"
    },
    {
      "inputs": [
        {
          "internalType": "uint256",
          "name": "requestId",
          "type": "uint256"
        },
        {
          "internalType": "uint256[]",
          "name": "randomWords",
          "type": "uint256[]"
        }
      ],
      "name": "rawFulfillRandomWords",
      "outputs": [],
      "stateMutability": "nonpayable",
      "type": "function"
    }
  ],
  "bytecode": "0x6101606040523480156200001257600080fd5b506040516200186a3803806200186a8339818101604052810190620000389190620002a0565b858073ffffffffffffffffffffffffffffffffffffffff1660808173ffffffffffffffffffffffffffffffffffffffff1660601b81525050508460a081815250508573ffffffffffffffffffffffffffffffffffffffff166101208173ffffffffffffffffffffffffffffffffffffffff1660601b815250508360c081815250508267ffffffffffffffff1660e08167ffffffffffffffff1660c01b815250508163ffffffff166101008163ffffffff1660e01b815250506000600160146101000a81548160ff021916908360018111156200011957620001186200033c565b5b0217905550426002819055508061014081815250505050505050506200036b565b600080fd5b600073ffffffffffffffffffffffffffffffffffffffff82169050919050565b60006200016c826200013f565b9050919050565b6200017e816200015f565b81146200018a57600080fd5b50565b6000815190506200019e8162000173565b92915050565b6000819050919050565b620001b981620001a4565b8114620001c557600080fd5b50565b600081519050620001d981620001ae565b92915050565b6000819050919050565b620001f481620001df565b81146200020057600080fd5b50565b6000815190506200021481620001e9565b92915050565b600067ffffffffffffffff82169050919050565b62000239816200021a565b81146200024557600080fd5b50565b60008151905062000259816200022e565b92915050565b600063ffffffff82169050919050565b6200027a816200025f565b81146200028657600080fd5b50565b6000815190506200029a816200026f565b92915050565b60008060008060008060c08789031215620002c057620002bf6200013a565b5b6000620002d089828a016200018d565b9650506020620002e389828a01620001c8565b9550506040620002f689828a0162000203565b94505060606200030989828a0162000248565b93505060806200031c89828a0162000289565b92505060a06200032f89828a01620001c8565b9150509295509295509295565b7f4e487b7100000000000000000000000000000000000000000000000000000000600052602160045260246000fd5b60805160601c60a05160c05160e05160c01c6101005160e01c6101205160601c61014051611483620003e76000396000818161067a01526106e80152600061049501526000610515015260006104f2015260006104d10152600081816102fa015261070e015260008181610320015261037401526114836000f3fe6080604052600436106100c25760003560e01c80636b68c03c1161007f578063c1af578511610059578063c1af578514610259578063c1c244e814610263578063e55ae4e81461028e578063fd6673f5146102cb576100c2565b80636b68c03c146101c55780636e04ff0d146101f057806391ad27b41461022e576100c2565b806309bc33a7146100c75780631fe543e3146100f25780634585e33b1461011b578063473f1ddc1461014457806353a2c19a1461016f5780635f1b0fd81461019a575b600080fd5b3480156100d357600080fd5b506100dc6102f6565b6040516100e99190610bc9565b60405180910390f35b3480156100fe57600080fd5b5061011960048036038101906101149190610d7d565b61031e565b005b34801561012757600080fd5b50610142600480360381019061013d9190610e34565b6103de565b005b34801561015057600080fd5b506101596105dd565b6040516101669190610ec2565b60405180910390f35b34801561017b57600080fd5b50610184610607565b6040516101919190610bc9565b60405180910390f35b3480156101a657600080fd5b506101af610614565b6040516101bc9190610bc9565b60405180910390f35b3480156101d157600080fd5b506101da610621565b6040516101e79190610f54565b60405180910390f35b3480156101fc57600080fd5b5061021760048036038101906102129190611024565b610638565b604051610225929190611110565b60405180910390f35b34801561023a57600080fd5b506102436106e4565b6040516102509190610bc9565b60405180910390f35b61026161070c565b005b34801561026f57600080fd5b5061027861087b565b6040516102859190610bc9565b60405180910390f35b34801561029a57600080fd5b506102b560048036038101906102b09190611140565b610885565b6040516102c29190610ec2565b60405180910390f35b3480156102d757600080fd5b506102e06108cc565b6040516102ed9190610bc9565b60405180910390f35b60007f0000000000000000000000000000000000000000000000000000000000000000905090565b7f000000000000000000000000000000000000000000000000000000000000000073ffffffffffffffffffffffffffffffffffffffff163373ffffffffffffffffffffffffffffffffffffffff16146103d057337f00000000000000000000000000000000000000000000000000000000000000006040517f1cf993f40000000000000000000000000000000000000000000000000000000081526004016103c792919061116d565b60405180910390fd5b6103da82826108d8565b5050565b60006103f860405180602001604052806000815250610638565b509050806104675747600080549050600160149054906101000a900460ff16600181111561042957610428610edd565b5b6040517fa9e3cfef00000000000000000000000000000000000000000000000000000000815260040161045e93929190611196565b60405180910390fd5b60018060146101000a81548160ff0219169083600181111561048c5761048b610edd565b5b021790555060007f000000000000000000000000000000000000000000000000000000000000000073ffffffffffffffffffffffffffffffffffffffff16635d3b1d307f00000000000000000000000000000000000000000000000000000000000000007f000000000000000000000000000000000000000000000000000000000000000060037f000000000000000000000000000000000000000000000000000000000000000060016040518663ffffffff1660e01b8152600401610556959493929190611280565b602060405180830381600087803b15801561057057600080fd5b505af1158015610584573d6000803e3d6000fd5b505050506040513d601f19601f820116820180604052508101906105a891906112e8565b9050807febf56642252004c18a776f30d528e7a0ce8c5db14b6596fb6550f630c8a24c6c60405160405180910390a250505050565b6000600160009054906101000a900473ffffffffffffffffffffffffffffffffffffffff16905090565b6000600161ffff16905090565b6000600361ffff16905090565b6000600160149054906101000a900460ff16905090565b60006060600080600181111561065157610650610edd565b5b600160149054906101000a900460ff16600181111561067357610672610edd565b5b14905060007f0000000000000000000000000000000000000000000000000000000000000000600254426106a79190611344565b119050600080600080549050119050600080471190508380156106c75750825b80156106d05750815b80156106d95750805b955050505050915091565b60007f0000000000000000000000000000000000000000000000000000000000000000905090565b7f0000000000000000000000000000000000000000000000000000000000000000341015610766576040517fec269fd100000000000000000000000000000000000000000000000000000000815260040160405180910390fd5b6000600181111561077a57610779610edd565b5b600160149054906101000a900460ff16600181111561079c5761079b610edd565b5b146107d3576040517fe76be6fc00000000000000000000000000000000000000000000000000000000815260040160405180910390fd5b6000339080600181540180825580915050600190039060005260206000200160009091909190916101000a81548173ffffffffffffffffffffffffffffffffffffffff021916908373ffffffffffffffffffffffffffffffffffffffff1602179055503373ffffffffffffffffffffffffffffffffffffffff167f1d64fb5ba9f2548c5b98468d58f25b87b9e866afee0122e92d9fe722bf85076c60405160405180910390a2565b6000600254905090565b600080828154811061089a57610899611378565b5b9060005260206000200160009054906101000a900473ffffffffffffffffffffffffffffffffffffffff169050919050565b60008080549050905090565b60008080549050826000815181106108f3576108f2611378565b5b602002602001015161090591906113d6565b9050600080828154811061091c5761091b611378565b5b9060005260206000200160009054906101000a900473ffffffffffffffffffffffffffffffffffffffff16905080600160006101000a81548173ffffffffffffffffffffffffffffffffffffffff021916908373ffffffffffffffffffffffffffffffffffffffff1602179055506000600160146101000a81548160ff021916908360018111156109b0576109af610edd565b5b0217905550600067ffffffffffffffff8111156109d0576109cf610c3a565b5b6040519080825280602002602001820160405280156109fe5781602001602082028036833780820191505090505b5060009080519060200190610a14929190610b09565b504260028190555060008173ffffffffffffffffffffffffffffffffffffffff1647604051610a4290611438565b60006040518083038185875af1925050503d8060008114610a7f576040519150601f19603f3d011682016040523d82523d6000602084013e610a84565b606091505b5050905080610abf576040517f1c94012000000000000000000000000000000000000000000000000000000000815260040160405180910390fd5b8173ffffffffffffffffffffffffffffffffffffffff167f5b690ec4a06fe979403046eaeea5b3ce38524683c3001f662c8b5a829632f7df60405160405180910390a25050505050565b828054828255906000526020600020908101928215610b82579160200282015b82811115610b815782518260006101000a81548173ffffffffffffffffffffffffffffffffffffffff021916908373ffffffffffffffffffffffffffffffffffffffff16021790555091602001919060010190610b29565b5b509050610b8f9190610b93565b5090565b5b80821115610bac576000816000905550600101610b94565b5090565b6000819050919050565b610bc381610bb0565b82525050565b6000602082019050610bde6000830184610bba565b92915050565b6000604051905090565b600080fd5b600080fd5b610c0181610bb0565b8114610c0c57600080fd5b50565b600081359050610c1e81610bf8565b92915050565b600080fd5b6000601f19601f8301169050919050565b7f4e487b7100000000000000000000000000000000000000000000000000000000600052604160045260246000fd5b610c7282610c29565b810181811067ffffffffffffffff82111715610c9157610c90610c3a565b5b80604052505050565b6000610ca4610be4565b9050610cb08282610c69565b919050565b600067ffffffffffffffff821115610cd057610ccf610c3a565b5b602082029050602081019050919050565b600080fd5b6000610cf9610cf484610cb5565b610c9a565b90508083825260208201905060208402830185811115610d1c57610d1b610ce1565b5b835b81811015610d455780610d318882610c0f565b845260208401935050602081019050610d1e565b5050509392505050565b600082601f830112610d6457610d63610c24565b5b8135610d74848260208601610ce6565b91505092915050565b60008060408385031215610d9457610d93610bee565b5b6000610da285828601610c0f565b925050602083013567ffffffffffffffff811115610dc357610dc2610bf3565b5b610dcf85828601610d4f565b9150509250929050565b600080fd5b60008083601f840112610df457610df3610c24565b5b8235905067ffffffffffffffff811115610e1157610e10610dd9565b5b602083019150836001820283011115610e2d57610e2c610ce1565b5b9250929050565b60008060208385031215610e4b57610e4a610bee565b5b600083013567ffffffffffffffff811115610e6957610e68610bf3565b5b610e7585828601610dde565b92509250509250929050565b600073ffffffffffffffffffffffffffffffffffffffff82169050919050565b6000610eac82610e81565b9050919050565b610ebc81610ea1565b82525050565b6000602082019050610ed76000830184610eb3565b92915050565b7f4e487b7100000000000000000000000000000000000000000000000000000000600052602160045260246000fd5b60028110610f1d57610f1c610edd565b5b50565b6000819050610f2e82610f0c565b919050565b6000610f3e82610f20565b9050919050565b610f4e81610f33565b82525050565b6000602082019050610f696000830184610f45565b92915050565b600080fd5b600067ffffffffffffffff821115610f8f57610f8e610c3a565b5b610f9882610c29565b9050602081019050919050565b82818337600083830152505050565b6000610fc7610fc284610f74565b610c9a565b905082815260208101848484011115610fe357610fe2610f6f565b5b610fee848285610fa5565b509392505050565b600082601f83011261100b5761100a610c24565b5b813561101b848260208601610fb4565b91505092915050565b60006020828403121561103a57611039610bee565b5b600082013567ffffffffffffffff81111561105857611057610bf3565b5b61106484828501610ff6565b91505092915050565b60008115159050919050565b6110828161106d565b82525050565b600081519050919050565b600082825260208201905092915050565b60005b838110156110c25780820151818401526020810190506110a7565b838111156110d1576000848401525b50505050565b60006110e282611088565b6110ec8185611093565b93506110fc8185602086016110a4565b61110581610c29565b840191505092915050565b60006040820190506111256000830185611079565b818103602083015261113781846110d7565b90509392505050565b60006020828403121561115657611155610bee565b5b600061116484828501610c0f565b91505092915050565b60006040820190506111826000830185610eb3565b61118f6020830184610eb3565b9392505050565b60006060820190506111ab6000830186610bba565b6111b86020830185610bba565b6111c56040830184610bba565b949350505050565b6000819050919050565b6111e0816111cd565b82525050565b600067ffffffffffffffff82169050919050565b611203816111e6565b82525050565b600061ffff82169050919050565b61122081611209565b82525050565b600063ffffffff82169050919050565b61123f81611226565b82525050565b6000819050919050565b600061126a61126561126084611209565b611245565b611226565b9050919050565b61127a8161124f565b82525050565b600060a08201905061129560008301886111d7565b6112a260208301876111fa565b6112af6040830186611217565b6112bc6060830185611236565b6112c96080830184611271565b9695505050505050565b6000815190506112e281610bf8565b92915050565b6000602082840312156112fe576112fd610bee565b5b600061130c848285016112d3565b91505092915050565b7f4e487b7100000000000000000000000000000000000000000000000000000000600052601160045260246000fd5b600061134f82610bb0565b915061135a83610bb0565b92508282101561136d5761136c611315565b5b828203905092915050565b7f4e487b7100000000000000000000000000000000000000000000000000000000600052603260045260246000fd5b7f4e487b7100000000000000000000000000000000000000000000000000000000600052601260045260246000fd5b60006113e182610bb0565b91506113ec83610bb0565b9250826113fc576113fb6113a7565b5b828206905092915050565b600081905092915050565b50565b6000611422600083611407565b915061142d82611412565b600082019050919050565b600061144382611415565b915081905091905056fea264697066735822122043d7fad56de26db82956e9c60d7fd3a63f3266604567ccbe1fb4d356e61a42a164736f6c63430008080033",
  "linkReferences": {},
  "deployedLinkReferences": {}
}